:040000000128F92FAB
:100E500041019D14080041011C08F6001B08F50023
:100E60000800031041019D1C03140030093D0800D7
:100E7000803041019E009B019C0101309D000800D3
:100E80004F0196019701980199019A019B01080071
:100E9000623051018D008F01910102309300900169
:100EA0009201080087315D27873187318627873196
:100EB0008731B0278731582F012887314027873164
:100EC000873177278731873148278731873138271E
:100ED00087310800F6007608F500F50DF50D4101A3
:100EE0001D087506033975069D001D140800400194
:100EF00098013030920020307E01B8001030B900E7
:100F0000BA013730BB003F30BC000800F901FA01DC
:100F1000053087316A27873187312827873140019B
:100F200012161210181092109814121118150800A9
:100F3000F8007808F700F70DF70D41011D08770656
:100F4000033977069D001D14000041019D149D1872
:100F5000AA2FAB2FA72F1C08F6001B08F5000800CE
:100F6000873131278731003A0319B72FB82FC22FA5
:100F700087312B2787317608FA007508F900873109
:100F800028278731003040010C1A0130F40000306E
:100F9000F905FF30FA0574080319CF2FD02FD22F8F
:100FA0001814D32F18100530873198278731023055
:100FB0007602EF3003197502031CDF2FE02FE42FB8
:100FC000400198141811F82F053087319827873180
:100FD00000307602FA30031975020318F02FF12F52
:100FE000F52F400118159810F82F40011815981486
:100FF0000800F001F101F201F301F4014001522F68
:020000040001F9
:0A000E00EC3FFF3F9F3FFF3FFF3F25
:00000001FF
