:020000004F2887
:100008007E1480314E01961E0A280B2813288C1E58
:100018000E280F2813288231882280314D280B1F83
:10002800162817284D28991C1A281B2826288F1CA3
:100038001E281F282628400147088A0046080A006B
:1000480080314D28191C29282A282F280F1C2D28D3
:100058002E282F281F28191E322833283E280F1E25
:10006800362837283E28400157088A0056080A00D3
:1000780080314D28991E412842284D288F1E452839
:1000880046284D28400155088A0054080A00803146
:100098004D287E1009005028F001F101F201F3010A
:1000A800F401F50120308400003085002E308331C2
:1000B800192380317E104001D62883319C2380315A
:1000C800833112238031003A03196B286C28802869
:1000D800833181238031003A0319732874287A28E0
:1000E8000130F70077084001CA00BC280230F70049
:1000F80077084001CA00BC28833181238031003A47
:100108000319872888288E280330F70077084001CC
:10011800CA00BC280430F70077084001CA00BC2890
:100128008231BE22803183310B238031003A03199A
:100138009E289F28D2288231A4228031D228823159
:10014800BE228031D22883310B238031003A031933
:10015800AE28AF28D2289F2883318A238031003ADD
:100168000319B728B828D2288231B1228031D22881
:100178004A08F700F8017808003A0319C428D22879
:100188007708013A03199428033A0319A328013A76
:100198000319A728073A0319B028D22883319923CD
:1001A800803108008231752280314001DA01DB019B
:1001B8006730F9000330FA0083311F238031813121
:1001C8006F21803181312F2180310B178B1740012E
:1001D8003B085B06031DF2283A085A06031DF5285A
:1001E800F628F728EB285B08B9005A08B8003A083F
:1001F800B8063B08B9065A08B8055B08B9055B0894
:10020800BB005A08BA0000303806DE000430390650
:10021800DF005E085F04031D122913291E2903103D
:10022800181D0314031819291C29400118151E2923
:100238004001181160303806DE00EA303906DF0068
:100248005E085F04031D29292A29EB2883318623A8
:100258008031EB284F284E019912A830F90001305F
:10026800FA0083312B2381314E0119120B30F9002A
:100278000230FA00833125238131083042019F0082
:1002880090309D0024309E0040309B0003309C003D
:10029800A330F9000330FA008331372381318E30DF
:1002A800F9000330FA008331312381319230F900AB
:1002B8000330FA0083313D2381314001C801F30145
:1002C800F2010830DD005D08DC00F101F001C90130
:1002D8004E01991608008231972281310830833106
:1002E800722381317F3083316D2381316130F90090
:1002F8000030FA008331552381310030F900003095
:10030800FA0083315B2381317730F9000330FA003A
:10031800833143238131FB30F9000230FA00833105
:100328004F2381310330F9000330FA008331612310
:1003380081310030F9000030FA00833149238131DE
:1003480083319623813108007108203E8600870199
:10035800810142011D1DB129B229BD297108203E24
:10036800860087018114400153088A0052080A0058
:10037800813142019D1CC129C229CD297108203E25
:10038800860087010115400151088A0050080A00BB
:1003980081317108203E8600870101080319D5299B
:1003A800D629DD2940014F088A004E080A0081310C
:1003B800E0298231472281310800400149080319A8
:1003C800E629E729E1297008203E8600870101080F
:1003D800F9007908C8007008283E860087010108DE
:1003E800F9007908FA000130F9007908F0070830B7
:1003F8007002031C002A012A022AF0014E019912F8
:1004080001304001C9024E0199167A0808000830E7
:1004180040015C020318112A122A2A2A7208303E67
:1004280086008701010842019A000130F60076082B
:10043800F20708307202031C222A232A242AF20116
:100448000130F60076084001DC072C2A4E0119120B
:100458000800400198012330920010307E01B80056
:10046800B901BA013730BB003F30BC0001307D0113
:10047800C5000F307E019400910190017D01C601F5
:100488000530CB00080042011908F6007108283E23
:1004980086008701760881000130F6007608F107AA
:1004A80008307102031C592A5A2A5B2AF1010130CB
:1004B800F60076084001C907080044304B019F0048
:1004C800FF309D009C014E018C129616A230F90057
:1004D8000330FA0083311F23823180304B019E00A4
:1004E80008008231F32282318231EA22823182315C
:1004F8002D2282318231D7228231823161228231AA
:1005080081312F21823108004E018C124001580898
:1005180059040319902A912A962A59088A005808DA
:100528000A00823108004301901A9B2A9C2AA32AB8
:100538008F010630F900790890049101901608009F
:100548004001420843040319AA2AAB2AB02A4308E7
:100558008A0042080A008231080040014408450424
:100568000319B72AB82ABD2A45088A0044080A0090
:10057800823108004001400841040319C42AC52AF1
:10058800CA2A41088A0040080A00823108008231DC
:10059800E1228231003A0319D22AD32AD62A81319C
:1005A800E12182310800603051018D008F019101F5
:1005B8000630930090019201080040015C08031D79
:1005C800E62AE82A0130E92A0030080043018F01B1
:1005D8000630F900790890049101901208004F0143
:1005E80096019701980199019A019B0108008331AE
:1005F8009F238231F60076084001CC000800833141
:100608009F238331F60076084001CB0008000310D1
:1006180043010F1C03140030093D08000310430177
:100628008F1E03140030093D080064008001013169
:10063800890B1A2B00347A084001D9007908D800B0
:1006480008007A084001D7007908D60008007A081F
:100658004001D5007908D40008007A084001D1008B
:100668007908D00008007A084001D3007908D20040
:1006780008007A084001CF007908CE0008007A08FF
:100688004001C3007908C20008007A084001BD0093
:100698007908BC0008007A084001C5007908C40040
:1006A80008007A084001C7007908C60008007A08DF
:1006B8004001BF007908BE0008007A084001C10067
:1006C8007908C000080001304001DA070030DB3D3E
:1006D8000800F900793543018E000800F9007935E2
:1006E80043018D000800740883317C23833108009E
:1006F800F600760843018C00080043010F0C890CB2
:10070800013908008231CB228331080043010F08E8
:100718000139080042011D121D16080082314722C6
:10072800833108004E01191408004301101608000F
:100738004E010F10080043010C08080008000800CB
:020000040001F9
:0A000E00EC3FFF3F9F3FFF3FFF3F25
:00000001FF
