:020000040000FA
:020000000328D3
:040002000034003492
:0A00060006202220042840018C018E
:10001000400198017E01B8014001013092000510B5
:100020008510051185110B30AB00051085100511E9
:10003000851120308400003085008001840AAB0BDC
:10004000FC33080005108510051185110B30AB003D
:1000500020308400003085003930AC0080308A00C8
:100060002C080A008000840AAC0AAB0BF73337284F
:100070000800483465346C346C346F3420345734A1
:080080006F3472346C346434F7
:020000040001F9
:02000E008F3F22
:02001000FF3FB0
:020012009F3F0E
:02001400FF3FAC
:02001600FF3FAA
:00000001FF
