:040000000128F82FAC
:100D4E0041019D14080041011C08F1001B08F00030
:100D5E000800031041019D1C03140030093D0800DA
:100D6E00803041019E009B019C0101309D000800D6
:100D7E004F0196019701980199019A019B01080074
:100D8E00803047018E0026308D00C0308C00080068
:100D9E00623051018D008F0191010230930090015C
:100DAE009201080087311F27863187310F27863140
:100DBE00873160278631DF2E0128F1007108F0009F
:100DCE00F00DF00D41011D087006033970069D00EF
:100DDE001D1408000130450190008F0191014D3026
:100DEE008D008C014E019010E03045018E00080000
:100DFE00400198011130920011307E01B800B90106
:100E0E00BA013730BB003F30BC000E3095000800F1
:100E1E004001A001A10100308631E42687318631E0
:100E2E00A726873140019210981412111815080048
:100E3E008631BF2687318631FF2687318631CF2610
:100E4E0087318631C72687318631F1268731863143
:100E5E00B726873108007108F3007008F200F336E8
:100E6E00F20CF336F20C720847018D00700803394C
:100E7E00F2000530F235FF3E031D412F72358C0016
:100E8E000800F3007308F200F20DF20D41011D0887
:100E9E007206033972069D001D14000041019D1457
:100EAE009D185A2F5B2F572F1C08F1001B08F000BE
:100EBE0008008631B0268731003A0319672F682F54
:100ECE00732F8631AA26873171084001A100700860
:100EDE00A0008631A726873100304001A005FF30E3
:100EEE00A105003087314827873102307102EE307C
:100EFE0003197002031C842F852FA92F400198140B
:100F0E0018111E30F5000030F6007608F100750855
:100F1E00F0008731322787310730F4007D30890B9E
:100F2E00962FF40B962F00000130F5070030F63D9A
:100F3E0000307602413003197502031CA72FA82F2B
:100F4E008C2FF72F00308731482787310030710200
:100F5E00FA30031970020318B52FB62FDA2F40019D
:100F6E00181598104130F5000030F6007608F100A3
:100F7E007508F0008731322787310730F4007D3055
:100F8E00890BC72FF40BC72F00000130F50200307C
:100F9E00F63B003076021F30031975020318D82F66
:100FAE00D92FBD2FF72F00308731482787310230D8
:100FBE007102EE3003197002031CE62FE72FF42F97
:100FCE00003087314827873100307102FB3003191A
:100FDE007002031CF32FF42FF72F400118159814ED
:100FEE000800F701F801F901FA01FB01FC014001CB
:020FFE00D92EEA
:020000040001F9
:0A000E00EC3FFF3F9F3FFF3FFF3F25
:00000001FF
