:040000000128FE2FA6
:100F78004F0196019701980199019A019B01080078
:100F8800623051018D008F01910102309300900170
:100F9800920108008731BC2787318731D8278731EC
:100FA8008731C42787310800400198011730920023
:100FB80017307E01B800B901BA013730BB003F30A5
:100FC800BC0008008731CE2787315230F0002A3024
:100FD800890BEC2FF00BEC2F03104001981E031423
:100FE8000318F72FFA2F40019816FC2F400198128A
:080FF800E92F01284001E62F5A
:020000040001F9
:0A000E00EC3FFF3F9F3FFF3FFF3F25
:00000001FF
