:040000000128FC2FA8
:100F2A00803041019E009B019C0101309D00080018
:100F3A004F0196019701980199019A019B010800B6
:100F4A00623051018D008F019101023093009001AE
:100F5A009201080087319D2787318731BC27873165
:100F6A008731A527873187319527873108004001C6
:100F7A0098011730920017307E01B800B901BA0102
:100F8A003730BB003F30BC000800F3007308F200A2
:100F9A00F20DF20D41011D087206033972069D0019
:100FAA001D14000041019D149D18DC2FDD2FD92F3F
:100FBA001C08F1001B08F00008008731AF278731B1
:100FCA0087319527873100308731CA278731023028
:100FDA0071020030031970020318F42FF52FF82F4D
:100FEA0040019816E52F40019812E52F0128F401D7
:060FFA00F5014001E22FA9
:020000040001F9
:0A000E00EC3FFF3F9F3FFF3FFF3F25
:00000001FF
