:040000000128FE2FA6
:100F8C004F0196019701980199019A019B01080064
:100F9C00623051018D008F0191010230930090015C
:100FAC00920108008731C62787318731EF278731B7
:100FBC008731CE27873108008731D8278731400108
:100FCC000C18E92FEA2FEC2F9816E52F9812E52F25
:100FDC000128400198011730920016307E01B800AC
:100FEC000130B900BA013730BB003F30BC000800FB
:040FFC004001E22F9F
:020000040001F9
:0A000E00EC3FFF3F9F3FFF3FFF3F25
:00000001FF
