:040000000CEF00F011
:10000800FACF01F0FBCF02F0E9CF03F0C2ED0BF01D
:040018009AEF0EF05D
:100800000001000A006400E80310272020202020B7
:1008100020202020202020202020202020200053C5
:10082000656E64696E6720534D532E2E2E004E6503
:1008300077206D7367206172726976650041542B71
:10084000434D47533D222573220D004D7367206DA4
:10085000656D2066756C6C0041542B434D47443DDB
:1008600025640D0041542B434D47523D25640D0036
:1008700041542B434D47463D310D0038393833390B
:100880003233303839004E6F206D657373616765A0
:100890000054657874204D6F64650041544425739D
:1008A0003B0D00286E756C6C2900415445300D00DD
:1008B000434D54493A002B434D4752004572726FE5
:1008C00072004154480D0054455354000D0A004F26
:1008D0004B0000001F0E246E000E256ECDD0250E9D
:1008E0002A18D8B409D01BC0D9FF1CC0DAFF2AC00F
:1008F000DFFF1B4A1C2AC0D0000E226E33D0CAD0A4
:1009000048D024C0D9FF25C0DAFFDECF26F0DDCFE6
:1009100027F0020E2426000E252226502710D8A4E8
:1009200015D0A30E266E080E276E10D026C0F6FF37
:1009300027C0F7FF1BC0D9FF1CC0DAFF0800F5CFA6
:10094000DFFF264A272A1B4A1C2A00D026C0F6FFB2
:1009500027C0F7FF0800F5500009D8B48DD0E6D7BE
:100960008BD017D01DC0F6FF1EC0F7FF1D4A1E2AF0
:100970000800F5CF2AF02A50000AD8B48BD0640AB8
:10098000D8B407D00D0AD8B404D01A0AD8B4B9D74D
:1009900073D024C0D9FF25C0DAFFDECF28F0DDCF29
:1009A00029F0020E2426000E252229AE07D0030EC0
:1009B0002212286C291ED8B0292A00D0010E2A6ED6
:1009C000050E2A18D8B416D001D014D02A50020D22
:1009D000010EF324F66E080EF420F76E0900F550B0
:1009E000285C0900F5502958D8A004D001D002D0C5
:1009F0002A2AE6D722C021F0030E2116D8B409D046
:100A00001BC0D9FF1CC0DAFF2D0EDF6E1B4A1C2A4B
:100A100000D02AC023F02AD02350020D010EF32467
:100A2000F66E080EF420F76E0900F5CF11F00A00FB
:100A3000F5CF12F028C00FF029C010F00FEC0DF028
:100A40000FC016F010C017F0000E196E0A0E186EC7
:100A500092EC0DF01650300F2A6E1BC0D9FF1CC04F
:100A6000DAFF2AC0DFFF1B4A1C2A00D023062328F6
:100A7000D8B402D0D1D700D01DC0F6FF1EC0F7FFFA
:100A80001D4A1E2A0800F5CF2AF02A50D8B402D0F9
:100A900026D700D01BC0D9FF1CC0DAFF000EDF6EC6
:100AA00000D0120032C036F0376A386A3134363638
:100AB00001E3378036503B6E35C036F0376A386A0E
:100AC0003434363601E3378036503A6E3B50D8B472
:100AD0000BD03A503B5CD8B00ED03B5000083A24C3
:100AE000366E180E366407D033C030F034C031F0A3
:100AF00035C032F0B8D03A50D8B40BD03B503A5C45
:100B0000D8B00ED03A5000083B24366E180E36642A
:100B100007D030C030F031C031F032C032F0A3D055
:100B2000060E396E32AE02D0398E00D035BE398C09
:100B3000318EFF0E3016FF0E3116000E3216348E37
:100B4000FF0E3316FF0E3416000E35163A503B5C7E
:100B5000D8B01ED0D8903336343635363A063B50AE
:100B60003A18D8B40FD0390639C036F0070E361609
:100B7000D8B408D0EFD706D0D890323231323032E4
:100B80003B2A00D03A503B18D8B424D0F5D722D015
:100B90003B503A5CD8B01ED0D89030363136323621
:100BA0003B063B503A18D8B40FD0390639C036F05E
:100BB000070E3616D8B408D0EFD706D0D890353205
:100BC000343233323A2A00D03A503B18D8B402D0EB
:100BD000F5D700D039AE0CD0FF0E301AFF0E311A07
:100BE000FF0E321A010E3026000E3122000E322284
:100BF00039AC0DD0FF0E331AFF0E341AFF0E351A22
:100C0000010E3326000E3422000E352200D0000ED5
:100C1000396E30503326315034223250352235AEC1
:100C20000FD0FF0E331AFF0E341AFF0E351A010EC5
:100C30003326000E3422000E3522010E396E00D00C
:100C400033C00FF034C010F035C011F03BC012F0CB
:100C500039C013F0EBEC09F00FC030F010C031F0E8
:100C600011C032F000D01200CBEC0EF0000E446E3A
:100C7000000E436E00D0000E4324D96E010E4420B6
:100C8000DA6E0D0EDE18D8B40AD0000E4324D96EE9
:100C9000010E4420DA6E0A0EDE18D8A405D0434AAD
:100CA000442AE9D701D0E7D7000E1E6E010E1F6E51
:100CB000B00E206E080E216E0BEC0CF01E501F10B3
:100CC000D8A405D080D003D0434A442A00D0000ED7
:100CD0004324D96E010E4420DA6E2C0EDE18D8A4FF
:100CE000F3D7434A442A000E3E6E14D0000E43242C
:100CF000D96E010E4420DA6E3E50010D3A0EF324F7
:100D0000E16E000EF420E26EDFCFE7FF434A442A93
:100D10003E2A00D0000E4324D96E010E4420DA6E24
:100D20000D0EDE18D8A4E2D73A0E156E000E166E20
:100D300081EC09F015C03FF016C040F040BE24D051
:100D4000405004E1150E3F5CD8A01ED0000E186E76
:100D50004B0E196E080E1A6E000EF8EC0DF0000E18
:100D6000156E010E166E000E186E000E176E000E38
:100D70000F6E010E106E3DEC0DF00FC019F010C09B
:100D80001AF048EC0EF01FD0000E156E010E166E14
:100D9000000E186E000E176E000E0F6E010E106E14
:100DA0003DEC0DF00FC019F010C01AF048EC0EF039
:100DB000000E446E000E436E3FC02BF040C02CF07E
:100DC000B8EC0DF000D01200000E1E6E010E1F6E6A
:100DD000B60E206E080E216E0BEC0CF01E501F108C
:100DE000D8A40AD0000E186E860E196E080E1A6E60
:100DF000000EF8EC0DF091D0000E446E000E436E24
:100E000000D0000E4324D96E010E4420DA6E0D0E80
:100E1000DE18D8B40AD0000E4324D96E010E442047
:100E2000DA6E0A0EDE18D8A409D0434A442AE9D75C
:100E300005D0E7D703D0434A442A00D0000E43240C
:100E4000D96E010E4420DA6E3A0EDE18D8B402D004
:100E5000F2D700D0434A442AFF0E226EFF0E236EC3
:100E600043C024F044C025F02250242623502522DC
:100E7000000E2424D96E010E2520DA6E0A0EDE182B
:100E8000D8A4E8D7C00EB6EC0EF0000E286E000E07
:100E9000276E16D0000E4324D96E010E4420DA6E60
:100EA000DF50A8EC0EF0434A442A274A282A100EA5
:100EB00027182810D8A404D0800EB6EC0EF000D06D
:100EC000000E4324D96E010E4420DA6E0D0EDE189A
:100ED000D8B40AD028BEDED7285006E11F0E275C02
:100EE000D8B002D0D7D700D0000E446E000E436EAB
:100EF000000E156E010E166E000E186E000E176EA7
:100F0000000E0F6E010E106E3DEC0DF00FC019F0CB
:100F100010C01AF048EC0EF000D0000E456E120022
:100F2000000E226E000E216E000E206E000E1F6E4F
:100F3000000E286E000E276E00D0600E215CEA0EB7
:100F40002258D8B078D001D076D0000E0F6E010EA6
:100F5000106E3DEC0DF00FC027F010C028F02750A8
:100F60002810D8B45FD0000E106E010E0F6ED9ECB1
:100F70000DF0214A222A000E0F6E010E106E3DEC7C
:100F80000DF027500F184EE128501018D8A44AD061
:100F9000000E246E000E236E36D0250E0F6E000E4E
:100FA000106E260E116E000E126E000E146E010EE3
:100FB000136E6AEC0BF0000E2324D96E010E242070
:100FC000DA6EDF50266E250E156E000E166ECC0EF4
:100FD000176E080E186E000E1A6E020E196E51EC86
:100FE0000CF015501610D8B40BD01F4A202A030E4F
:100FF0001F182010D8A404D04EEC0AF01CD000D04A
:10100000234A242A00D02750235C2450800A1E6ED5
:101010002850800A1E58D8A0C0D7000E206E000E9F
:101020001F6E00D0000E106E010E0F6ED9EC0DF089
:10103000214A222A82D71200000E446E000E436E0F
:10104000600E1B6E000E1C6E3D0E1D6E080E1E6E99
:101050002BC01FF02CC020F06AEC04F0600E106E64
:10106000000E116E68EC0DF0000E106EC80E0F6EC3
:10107000D9EC0DF000D0000E4324D96E010E4420AF
:10108000DA6E3E0EDE18D8A422D0000E446E000E9A
:10109000436E000E156E010E166E000E186E000ED9
:1010A000176E000E0F6E010E106E3DEC0DF00FC0AE
:1010B00019F010C01AF048EC0EF02DC010F02EC040
:1010C00011F068EC0DF01A0EC4EC0EF003D0434A98
:1010D000442AD1D7010E106E2C0E0F6ED9EC0DF0F4
:1010E000000E446E000E436E000E156E010E166E5D
:1010F000000E186E000E176E000E0F6E010E106EB1
:101100003DEC0DF00FC019F010C01AF048EC0EF0D5
:10111000600E156E000E166E000E186E000E176E25
:10112000600E0F6E000E106E3DEC0DF00FC019F04A
:1011300010C01AF048EC0EF0120011C013F0146A3F
:10114000156A1034133601E3148013501D6E1D50C0
:10115000D8A402D039D063D0170E136E0FC014F08C
:1011600010C015F011C016F01328176E04D0D890D7
:10117000163215321432172EFAD71450186E108EFC
:10118000FF0E0F16FF0E1016000E11160F50196EDF
:1011900010501A6E11501B6E1C6A8E0E1D5E1DAE15
:1011A00010D01D50800A8F0FD8B003D00DD037D08B
:1011B00000D0D8901C321B321A3219321D3EF9D79A
:1011C00019D0170E1D6411D0000E0F6E000E106E98
:1011D000000E116E000E126E22D007D0D890193674
:1011E0001A361B361C361D0600D01D50D8B402D04E
:1011F000F5D700D01850D8B409D01C1E1B1E1A1EDB
:10120000196C000E1A221B221C2200D019C00FF0EC
:101210001AC010F01BC011F01CC012F000D0120058
:1012200023C027F0286A296A2234273601E3288060
:1012300027502E6E2E50D8A402D00ED061D026C0DA
:1012400027F0286A296A2534273601E328802750A9
:101250002F6E2F50D8A407D0000E216E000E226EE4
:10126000000E236E4DD0000E2B6E000E2C6E000E65
:101270002D6E2F50890F2E5E23C02FF026502F1A6F
:10128000800E2F16228EFF0E2116FF0E2216000E44
:101290002316258EFF0E2416FF0E2516000E261689
:1012A000180E2A6E00D0D8902B362C362D362450AE
:1012B000215C2550225826502358D8A007D024500E
:1012C000215E2550225A2650235A2B80D890213651
:1012D000223623362A2EE7D700D02BC00FF02CC0A1
:1012E00010F02DC011F02EC012F02FC013F0EBEC57
:1012F00009F00FC021F010C022F011C023F000D07F
:10130000120003D0154A162A00D015C0D9FF16C006
:10131000DAFF200EDE18D8B4F5D715C0D9FF16C0F5
:10132000DAFF090EDE18D8B4EDD7000E1B6E000EE2
:101330001A6E000E196E15C0D9FF16C0DAFF2D0EF9
:10134000DE18D8A402D0192A25D015C0D9FF16C09E
:10135000DAFF2B0EDE18D8A420D01CD01ED01AC065
:101360000FF01BC010F0000E126E0A0E116E75EC1D
:101370000EF015C0D9FF16C0DAFFDF50176E186ADD
:101380000F50172610501822D00E17241A6EFF0E79
:1013900018201B6E154A162A00D015C0D9FF16C09A
:1013A000DAFFDF5089EC0EF0D8B0D9D71950D8B495
:1013B0000DD01AC017F01BC018F0171E181E174AC0
:1013C000182A17C015F018C016F004D01AC015F06E
:1013D0001BC016F012001250D8B405D00F501010D8
:1013E0001110D8A40ED0000E0F6E000E106E000E5D
:1013F000116E53D006D0122AD890113210320F320B
:1014000000D0000E0F14146E000E1014156EFE0E98
:101410001114166E145015101610D8B40ED0EBD748
:101420000CD0122A010E0F26000E1022000E1122DF
:10143000D890113210320F3200D0000E0F14146EFB
:10144000000E1014156EFF0E1114166E14501510A8
:101450001610D8B408D0E5D706D01206D8900F36AB
:101460001036113600D010BE04D0020E1260F5D72F
:1014700000D012B002D0109E00D0D890123212507C
:1014800011121350D8B402D0118E00D00FC00FF03B
:1014900010C010F011C011F000D01200000E446E08
:1014A000000E436E00D0000E4324D96E010E44207E
:1014B000DA6E0D0EDE18D8B40AD0000E4324D96EB1
:1014C000010E4420DA6E0A0EDE18D8A405D0434A75
:1014D000442AE9D701D0E7D7000E186E0B0E196E1B
:1014E000080E1A6E010EF8EC0DF0C00EB6EC0EF000
:1014F00014D0000E4324D96E010E4420DA6EDF5062
:10150000A8EC0EF0434A442A0F0E43184410D8A406
:1015100004D0800EB6EC0EF000D0000E4324D96E3D
:10152000010E4420DA6E0D0EDE18D8A4E2D7000EAC
:10153000446E000E436E000E156E010E166E000E08
:10154000186E000E176E000E0F6E010E106E3DEC41
:101550000DF00FC019F010C01AF048EC0EF0120098
:10156000000E446E000E436E000E456E720ED36E7A
:1015700031EC0EF0F28EF28C9D8A000E106E640E2D
:101580000F6ED9EC0DF0800E3C6E250E3D6E000EF8
:101590003E6E000E3F6ED2EC0CF0CBEC0EF011EC78
:1015A0000BF0CBEC0EF01F0E166E080E176E5FECF4
:1015B0000EF0070E106ED00E0F6ED9EC0DF07B0EF4
:1015C0002B6E080E2C6EC70E2D6E080E2E6E1CECA8
:1015D00008F00B0E106EB80E0F6ED9EC0DF0CBECC0
:1015E0000EF000D0000E456E4550D8B4FBD7CBECC2
:1015F0000EF0000E186E2E0E196E080E1A6E000EEA
:10160000F8EC0DF0030E106EE80E0F6ED9EC0DF035
:10161000CBEC0EF034EC06F0000E456EE3D70CEF89
:1016200000F0C00EB6EC0EF0AA0E106E080E116E91
:1016300068EC0DF0010E106EF40E0F6ED9EC0DF08B
:10164000000E1E6E010E1F6ECF0E206E080E216E54
:101650000BEC0CF01E501F10D8B412D090EC07F019
:10166000000E156E010E166E000E186E000E176E2F
:10167000000E1A6EA00E196E48EC0EF008D0D1D7ED
:10168000BC0E166E080E176E5FEC0EF0CAD7070E72
:10169000106ED00E0F6ED9EC0DF0CBEC0EF0000EEC
:1016A000186E910E196E080E1A6E000EF8EC0DF001
:1016B000C00EB6EC0EF0700E106E080E116E68ECD7
:1016C0000DF090EC07F00B0E106EB80E0F6ED9EC0B
:1016D0000DF0120011C019F012C01AF00FC017F06F
:1016E00010C018F01750195C18501A58D8B02ED0E6
:1016F00013501924156E14501A20166E1550175CCD
:1017000016501858D8B022D01350192614501A2247
:10171000135017261450182200D01906D8A01A0604
:1017200019C0D9FF1AC0DAFF1706D8A0180617C0CB
:10173000E1FF18C0E2FFDFCFE7FF1306D8A01406D1
:1017400013501410D8B41DD0E8D71BD01350141068
:10175000D8B417D019C0D9FF1AC0DAFF17C0E1FFFB
:1017600018C0E2FFDFCFE7FF194A1A2A174A182AE2
:101770001306D8A0140613501410D8B402D0EAD718
:1017800000D012000600EACF04F0E1CF05F0E2CF6E
:1017900006F0D9CF07F0DACF08F0F3CF09F0F4CF95
:1017A0000AF0F6CF0BF0F7CF0CF0F8CF0DF0F5CF35
:1017B0000EF09EAA13D0000E4324D96E010E4420D1
:1017C000DA6EAECFDFFF434A442AABA204D0AB9817
:1017D00000F0AB8800D0010E456E00D00EC0F5FFC2
:1017E0000DC0F8FF0CC0F7FF0BC0F6FF0AC0F4FFF6
:1017F00009C0F3FF08C0DAFF07C0D9FF06C0E2FF47
:1018000005C0E1FF04C0EAFF03C0E9FF02C0FBFF1F
:1018100001C0FAFF110032D01EC015F01FC016F033
:1018200020C017F021C018F020C00FF021C010F028
:101830003DEC0DF00FC019F010C01AF051EC0CF097
:1018400015501610D8A405D01EC01EF01FC01FF0E2
:1018500027D0010E1E240F6E000E1F20106E20C018
:10186000F6FF21C0F7FF0800F550116E126A15EC63
:101870000EF00FC01EF010C01FF000D01E501F1041
:10188000D8B409D01EC0D9FF1FC0DAFFDF50D8B4CA
:1018900002D0C2D700D0000E1E6E000E1F6E00D008
:1018A000120034D015C0D9FF16C0DAFFDF50D8B40B
:1018B0000FD015C0D9FF16C0DAFFDF501B6E17C05E
:1018C000F6FF18C0F7FF0800F5501B18D8B419D060
:1018D00017C0F6FF18C0F7FF0800F5501B6E1C6A12
:1018E0001B1E1C1E1B4A1C2A15C0D9FF16C0DAFF7E
:1018F000DF501D6E1D501B24156E000E1C20166E31
:1019000012D0154A162A174A182A00D01906D8A04C
:101910001A061928C7E11A28D8A4C4D7000E166ED3
:10192000000E156E00D01200000E206E8E0E1F6E7F
:101930001AAE12D01A1E191E181E176C000E18228D
:1019400019221A22010E206E07D0D8901A321932AD
:10195000183217321F2A00D0000E17141B6E000E0B
:1019600018141C6E000E19141D6EFF0E1A141E6E34
:101970001B501C101D101E10D8A4E7D717C00FF065
:1019800018C010F019C011F01FC012F020C013F0E1
:10199000EBEC09F00FC017F010C018F011C019F0EF
:1019A00000D01200949C948E3CC017F03DC018F0FB
:1019B0003EC019F03FC01AF094EC0CF017C024F0B0
:1019C00018C025F019C026F0240E216EF40E226EE8
:1019D000470E236E10EC09F021C030F022C031F028
:1019E00023C032F0000E336E800E346EBF0E356EA3
:1019F00052EC05F030C040F031C041F032C042F04E
:101A000040C00FF041C010F042C011F09DEC08F052
:101A10000F50AF6E200EAC6E900EAB6E1200000E2B
:101A2000146E000E136E11501210D8B421D0010E96
:101A3000156E05D0D89011361236152A00D012BE78
:101A400002D0F8D700D0D8901336143611500F5C5E
:101A500012501058D8A006D011500F5E1250105AD4
:101A6000138000D0D89012321132152EECD700D04E
:101A700013C00FF014C010F012000FC013F010C00C
:101A800014F003D0134A142A00D013C0F6FF14C078
:101A9000F7FFF86A070EF76403D00800F55005D089
:101AA000F6CFE9FFF7CFEAFFEF500009D8A4EAD755
:101AB0000FC011F010C012F0111E121E114A122A8E
:101AC000135011240F6E14501220106E00D012000B
:101AD00015D010C0F6FF11C0F7FFF86A070EF764C3
:101AE00003D00800F55005D0F6CFE9FFF7CFEAFFA5
:101AF000EF50C4EC0EF0104A112A00D010C0F6FFCF
:101B000011C0F7FFF86A070EF76403D00800F5501C
:101B100005D0F6CFE9FFF7CFEAFFEF500009D8A4D0
:101B2000D8D7120018501910D8B41DD0010E1A6E53
:101B300005D0D890183619361A2A00D019BE02D00E
:101B4000F8D700D01850165C19501758D8A005D0F7
:101B50001850165E1950175A00D0D8901932183202
:101B60001A2EF0D700D016C016F017C017F01200CA
:101B7000000E2E6E000E2D6E2F0E1B6E000E1C6EB4
:101B8000640E1D6E080E1E6E2BC01FF02CC020F0C0
:101B90006AEC04F02F0E106E000E116E68EC0DF062
:101BA000030E106EE80E0F6ED9EC0DF0E4EC06F0AB
:101BB0001200000E126E000E116E13D0000E146E85
:101BC000000E136E14500AE1A50E135CD8B006D0B7
:101BD00001D004D0134A142AF5D700D0114A122A92
:101BE00000D00F50115C10501258D8A0E7D7120047
:101BF0001B6E000E1C6E1B50D8A408D018500F0B83
:101C000080091C6E1C50B6EC0EF008D018500F0B5B
:101C1000C0091C6E1C50B6EC0EF000D019C016F0B6
:101C20001AC017F05FEC0EF012000FC0D9FF10C001
:101C3000DAFF1150DE18D8A405D00FC00FF010C085
:101C400010F00ED00FC0D9FF10C0DAFF0F4A102AD3
:101C5000DF50D8A4EAD7000E0F6E000E106E00D031
:101C60001200000E956E000E936E000E106E140E94
:101C70000F6ED9EC0DF0380EB6EC0EF0010EB6EC8E
:101C80000EF00C0EB6EC0EF0060EB6EC0EF01200D6
:101C900015C01BF016C01CF009D01BC0D9FF1CC01A
:101CA000DAFF17C0DFFF1B4A1C2A00D01906D8A094
:101CB0001A061928F2E11A28D8A4EFD712000BD07F
:101CC00016C0F6FF17C0F7FF0800F550A8EC0EF09D
:101CD000164A172A00D016C0F6FF17C0F7FF0800F3
:101CE000F5500009D8A4ECD712000F501102F3CF21
:101CF00013F0F4CF14F00F501202F35014261050CA
:101D00001102F350142613C00FF014C010F000D0CD
:101D10001200116E000E106E3A0E116006D02F0EDA
:101D2000116403D0010E106E00D010C00FF00F3000
:101D300000D0120001EE00F0A00EEE6AE806FDE110
:101D4000456A446A436A000EF86E0001B0EF0AF07B
:101D5000156E15C08AFF8C808C8200F08C92000E6C
:101D6000106E010E0F6ED9EC0DF01200156E15C03D
:101D70008AFF8C908C8200F08C92000E106E030E05
:101D80000F6ED9EC0DF012000F6E00D09EA8FED79A
:0E1D90000FC0ADFF1200010EB6EC0EF01200F7
:020000040020DA
:08000000FFFFFFFFFFFFFFFF00
:020000040030CA
:0E00000000091F1EFF0081FF0FC00FE00F4020
:00000001FF
